:020000040800F2
:10000000B007002089010008CF140008B7120008CB
:10001000CD1400088F0200089119000800000000AC
:10002000000000000000000000000000D3140008E1
:100030000303000800000000D1140008D5140008D4
:10004000A3010008A3010008A3010008A301000800
:10005000A3010008A3010008A3010008A3010008F0
:10006000A3010008A3010008A3010008A3010008E0
:10007000A3010008A3010008A3010008CD020008A5
:10008000A3010008A3010008A3010008A3010008C0
:10009000A3010008A3010008A3010008A3010008B0
:1000A000A3010008A3010008A3010008A3010008A0
:1000B000A3010008A3010008A3010008A301000890
:1000C000A3010008A3010008A3010008A301000880
:1000D000A3010008A3010008A3010008A301000870
:1000E000A3010008A3010008A301000800F002F822
:1000F00000F03AF80AA090E8000C82448344AAF188
:100100000107DA4501D100F02FF8AFF2090EBAE885
:100110000F0013F0010F18BFFB1A43F0010318473B
:1001200080190000A0190000103A24BF78C878C1D7
:10013000FAD8520724BF30C830C144BF04680C60ED
:10014000704700000023002400250026103A28BF35
:1001500078C1FBD8520728BF30C148BF0B60704739
:100160001FB51FBD10B510BD00F058F81146FFF7C0
:10017000F7FF01F01FFC00F076F803B4FFF7F2FF81
:1001800003BC00F07DF8000009488047094800479B
:10019000FEE7FEE7FEE7FEE7FEE7FEE7FEE7FEE737
:1001A000FEE7FEE704480549054A064B7047000094
:1001B0002D150008ED000008B0010020B007002058
:1001C000B0030020B00300204FF0000200B513463A
:1001D00094469646203922BFA0E80C50A0E80C5067
:1001E000B1F12001BFF4F7AF090728BFA0E80C5018
:1001F00048BF0CC05DF804EB890028BF40F8042B11
:1002000008BF704748BF20F8022B11F0804F18BF7D
:1002100000F8012B7047704770477047754600F033
:100220002BF8AE4605006946534620F00700854688
:1002300018B020B5FFF7B6FFBDE820404FF000062C
:100240004FF000074FF000084FF0000B21F00701BE
:10025000AC46ACE8C009ACE8C009ACE8C009ACE801
:10026000C0098D46704710B50446AFF300802046A4
:10027000BDE81040FFF781BF0048704750010020E3
:1002800001491820ABBEFEE7260002007047FEE7DA
:10029000C2780D490A2A04D0002008606420486012
:1002A000704702786423303A5A430A60437803EB7C
:1002B000830302EB4302A2F5F0720A608078303AC1
:1002C00010440860EBE7000000000020014800F047
:1002D0001BB800000C01002030B590F840500124FC
:1002E000AC40C56B6C60046863604368102B0368A6
:1002F00003D099600068C26030BD9A600068C16038
:1003000030BD704772B6FEE72DE9F05FC16B0C6837
:1003100001680B68D0F840C0042202FA0CF2494D83
:10032000DFF824A1494E4A4FDFF828B1DFF828E171
:1003300022422CD05A072AD50A68920603D40A68AA
:1003400022F004020A600168A94201D1042219E0E6
:10035000514501D1402215E0B14202D14FF48062F3
:1003600010E0B94202D14FF480420BE0594502D16E
:100370004FF4802206E0714502D14FF4800201E083
:100380004FF080622F4908394A60C16A3BE04FF064
:10039000020808FA0CF818EA040F4FF000094FF0B1
:1003A000010235D05FEA837832D50B689B0605D40D
:1003B0000B6823F00A030B6080F821200168A94232
:1003C00001D1022219E0514501D1202215E0B142AC
:1003D00002D14FF4007210E0B94202D14FF4005242
:1003E0000BE0594502D14FF4003206E0714502D1CD
:1003F0004FF4001201E04FF00072124908394A60D0
:1004000080F82090816A00291AD0BDE8F05F084783
:10041000082505FA0CF5254212D01B0710D50B68EC
:1004200023F00E030B6090F84010C36B02FA01F149
:100430005960826380F8212080F82090016BE2E708
:10044000BDE8F09F080002401C000240300002405E
:1004500044000240580002406C00024030B528B30E
:1004600008C8134914221944B1FBF2F18900C16391
:1004700010498163022141771A6843F6F0718A437B
:10048000D0E900142143D0E902452C4321430469FB
:1004900021434469214384692143114319600021A8
:1004A0004163012242770177084630BD012030BD0B
:1004B000F8FFFDBF0000024070B5044690F8200030
:1004C000002501280CD0012084F8200094F8216038
:1004D0000020012E06D084F820000225284670BD99
:1004E000022070BD022684F82160A063206806689F
:1004F00026F0010606602046FFF7EEFEE06A0028BF
:100500002068016802D041F00E0106E021F00401EC
:1005100001602068016841F00A01016020680168FB
:1005200041F001010160D9E72DE9F84FDFF8B891FA
:10053000002409F1040A0AF1040B23460F270BF1EA
:10054000040EC9E00125A5402A40AA427DD1674E8C
:10055000D1F804C0ACEB0608B44532D014DCBCF1D1
:10056000030F3AD009DCBCF1000F2AD0BCF1010F17
:100570001CD0BCF1020F31D11DE0BCF1110F17D01E
:10058000BCF1120F2AD119E0B8F5881F19D006DC8A
:10059000B8F5803F15D0B8F5801F1FD111E0B8F530
:1005A000001F0ED0B8F5041F18D10AE0CB6815E083
:1005B000CB681B1D12E0CB6808330FE0CB680C330F
:1005C0000CE08B682BB1012B4FF0080303D0456181
:1005D00004E0042302E0056100E00023FF2A01D8C3
:1005E000064601E000F104064FEA840501D9A5F1B1
:1005F0002005D6F8008007FA05FC28EA0C0803FA63
:1006000005F548EA0508C6F800804D68ED0062D59A
:10061000374DAE6946F00106AE61AD6924F00306C0
:1006200005F001050095334D06EB050CDCF808508C
:10063000A607360F07FA06F825EA0805DFF8B8809E
:10064000404503D14FF0000817E044E0DFF8AC80EC
:10065000404502D14FF001080FE0DFF8A48040458B
:1006600002D14FF0020808E0DFF89880404502D13F
:100670004FF0030801E04FF0040808FA06F848EAD2
:100680000508CCF808804D68D9F80060ED034D46A8
:1006900001D5164300E096432E604D68DAF80060FD
:1006A000AD03554601D5164300E096432E604D68D4
:1006B000DBF80060ED025D4601D5164300E096438D
:1006C0002E604D68DEF80060AD02754601D5164318
:1006D00000E096432E60641C0D682A46E5407FF4D6
:1006E00031AFBDE8F88F0000000401400000111098
:1006F000001002400000014000080140000C0140D1
:1007000000100140001401408068084000D0012022
:1007100070470AB1016170470904FBE7014880682E
:1007200070470000180000200248816802781144D8
:100730008160704718000020074810B5016841F03B
:1007400010010160032000F075F80F2000F006F89A
:1007500000F024F8002010BD0020024070B50D4DBF
:1007600004464FF47A712878B1FBF0F00A49096821
:10077000B1FBF0F000F0ECFA48B9102C07D20022DF
:100780002146501E00F036F800206C6070BD01203C
:1007900070BD000018000020240000200C4808B59F
:1007A000816941F001018161816901F001010091DC
:1007B000C16941F08051C161C06900F08050009072
:1007C0000448416821F0E06141F00071416008BDDA
:1007D0000010024000000140002809DB00F01F0269
:1007E000012191404009800000F1E020C0F8001193
:1007F00070470000F0B40E4B1B680C46C3F3022395
:10080000C3F10705042D00D90425191D072901D2BC
:10081000002300E0DB1E012606FA05F1491E2140F7
:1008200099409E40761E16403143F0BC01F0B1B8AD
:100830000CED00E0064900F0070208684FF6FF03E0
:10084000184040EA0220034A104308607047000045
:100850000CED00E00000FA052DE9F0470F46050019
:1008600061D0434E306800F00700B84209D23068CA
:1008700020F0070038433060306800F00700B842CD
:1008800051D128683B4C810712D5400703D56068D9
:1008900040F4E06060602878000703D5606840F4A9
:1008A000605060606068A96820F0F00008436060F4
:1008B0002878C00728D06868012810D0216802284D
:1008C00010D0890700292EDA616821F00301014365
:1008D0006160FFF723FF804641F288390DE021680F
:1008E0008903EFE78901EDE7FFF718FFA0EB0801A7
:1008F000494502D90320BDE8F0876068696800F0C7
:100900000C00B0EB810FEFD1306800F00700B84267
:100910000BD9306820F0070038433060306800F0B1
:100920000700B84201D00120E5E72878400705D547
:100930006068E96820F4E060084360602878000798
:1009400006D56068296920F4605040EAC100606003
:1009500000F038F86168084AC1F30311515CC840DF
:100960000649086006480068FFF7F8FE0020C2E765
:100970000020024000100240881A000824000020D5
:100980001C0000200448054900684968044AC1F376
:100990000221515CC8407047240000200010024032
:1009A000981A00080448054900684968044AC1F3D8
:1009B000C221515CC8407047240000200010024052
:1009C000981A000812A185B00FC98DE80F0014A075
:1009D000144A006804905168134801F00C03042B7A
:1009E00010D0082B0ED1C1F38343C9031DF80300B7
:1009F0000AD5516804AAC1F34041515C0A4A5043E8
:100A0000B0FBF1F005B0704708494843FAE7000031
:100A100002030405060708090A0B0C0D0E0F10103F
:100A2000010200000010024000127A0000093D009F
:100A30002DE9F84F040070D02078C04DC00749D090
:100A40006868C0F38100012807D06868C0F381009E
:100A5000022809D16868C00306D52868800339D503
:100A600060680028E7D035E06068B0F5803F0BD0C3
:100A700010B1B0F5A02F11D0286820F48030286084
:100A8000286820F4802002E0286840F48030286044
:100A9000606890B1FFF742FE06460AE0286840F41D
:100AA00080202860F0E700BFFFF738FE801B642835
:100AB00073D828688003F7D50CE0FFF72FFE0646B1
:100AC00005E000BFFFF72AFE801B6428F0D82868E5
:100AD0008003F7D420789A4E80074FF001094FF039
:100AE000000839D5686810F00C0F07D06868C0F3AB
:100AF0008100022809D16868C00306D428688007ED
:100B000014D52069012808D110E02069B0B1C6F8D9
:100B10000090FFF703FE074605E00AE1FFF7FEFD40
:100B2000C01B0228C4D828688007F7D528686169E7
:100B300020F0F80040EAC10028600DE0C6F800800F
:100B4000FFF7ECFD074604E0FFF7E8FDC01B0228B5
:100B500023D828688007F7D4207800072CD5794857
:100B6000A169D9B1C0F80090FFF7D8FD074604E0AD
:100B7000FFF7D4FDC01B02280FD8686A8007F7D59D
:100B800071484FF4FA510068B0FBF1F0009000BFDB
:100B90000098411E0091FAD20EE080E0C0F800807B
:100BA000FFF7BCFD074604E0FFF7B8FDC01B0228B5
:100BB00075D8686A8007F7D42078400760D5E8695F
:100BC0000027C00008D4E86940F08050E861E86977
:100BD000012700F0805000905C480168C90513D4DB
:100BE0000168834641F480710160FFF797FD8246FA
:100BF00006E000BFFFF792FDA0EB0A0064284ED884
:100C0000DBF80000C005F5D5E06801280AD008B17E
:100C1000052813D0286A20F001002862286A20F0F5
:100C2000040002E0286A40F001002862E06841F216
:100C3000883B98B1FFF772FD82460BE0286A40F0CE
:100C400004002862EEE700BFFFF768FDA0EB0A0191
:100C500059455AD8286A8007F6D50CE0FFF75EFDA3
:100C6000824605E0FFF75AFDA0EB0A0159454CD832
:100C7000286A8007F6D41FB1E86920F08050E86147
:100C8000E06988B36968C1F38101022944D0022870
:100C9000C6F8608004D0FFF741FD044638E034E038
:100CA000FFF73CFD074604E0FFF738FDC01B0228B4
:100CB0002BD828688001F7D4206AB0F5803F05D191
:100CC0006868A16820F4003008436860D4E908012E
:100CD0000843696821F4741108436860C6F860909D
:100CE000FFF71CFD044606E025E000BFFFF716FDF8
:100CF000001B022809D828688001F7D51BE000BF37
:100D0000FFF70CFD001B022802D90320BDE8F88F75
:100D100028688001F4D40EE00128F7D06868226AC0
:100D200000F48031914204D1616A00F4701088426D
:100D300001D00120EAE70020E8E7000000100240AF
:100D40000000424280044242240000200070004023
:100D500010B5401EB0F1807F01D3012010BD4FF0CF
:100D6000E02460610F21601700F013FE0020A061F5
:100D700007202061002010BD70B590F83C20012AAA
:100D800026D0012480F83C40022280F83D200368F0
:100D90005A689D6822F070060A6832435A600D4B0B
:100DA00002689A4208D0B2F1804F05D00A4B9A42AD
:100DB00002D00A4B9A4204D1496825F080031943B6
:100DC000916080F83D40002180F83C10084670BDDD
:100DD000022070BD002C01400004004000080040CB
:100DE00010B5040003D094F83D0010B107E00120D5
:100DF00010BD002084F83C00204600F01FF80220BF
:100E000084F83D00211D206800F092FB012084F849
:100E1000460084F83E0084F83F0084F8400084F8DF
:100E2000410084F8420084F8430084F8440084F8C8
:100E3000450084F83D00002010BD000008B50068A2
:100E40000649884208D10648C16941F00201C161E2
:100E5000C06900F00200009008BD000000040040DE
:100E60000010024070B5044690F83C00012817D0ED
:100E7000012584F83C50022084F83D0020688268F7
:100E800022F0770222F47F4282600868502830D036
:100E90000DDC20284DD005DC98B310283BD148E06C
:100EA000022070BD302844D0402834D139E0602879
:100EB00028D0702806D0B0F5805F2CD0B0F5005F48
:100EC00029D10AE0CB68D1E90121206800F073FB49
:100ED0002068816841F0770109E0CB68D1E9012100
:100EE000206800F068FB2068816841F480418160DF
:100EF00011E0CA684968206800F012FC502120689F
:100F000007E016E0CA684968206800F01AFC602112
:100F1000206800F05AFB84F83D50002084F83C0023
:100F200070BDCA684968206800F0FAFB402120685B
:100F3000EFE7226801461046EBE7000010B586B0E7
:100F4000002100910191029103910368114902224D
:100F50001148B3F1804F13D0104CA3420ED18B69CE
:100F600043F004038B61896901F00401049140217D
:100F7000CDE9001269460392FFF7D6FA06B010BD1C
:100F80008B6943F004038B61896901F004010491CA
:100F90000121EDE70010024000080140000400407C
:100FA00070B5044690F83C000D4601280AD0012097
:100FB00084F83C0042B1042A18D0082A2AD00C2A0E
:100FC0004DD139E0022070BD206800F007FB206899
:100FD000816941F0080181612068816921F0040183
:100FE0008161206881692A69114311E0206800F05D
:100FF0001DFB2068816941F400618161206881697D
:1010000021F480618161206881692A6941EA0221B5
:10101000816124E0206800F035FB2068C16941F05F
:101020000801C1612068C16921F00401C161206823
:10103000C1692A69114311E0206800F04FFB206864
:10104000C16941F40061C1612068C16921F4806116
:10105000C1612068C1692A6941EA0221C161002099
:1010600084F83C0070BD10B5040003D094F83D0036
:1010700010B107E0012010BD002084F83C0020469C
:1010800000F01EF8022084F83D00211D206800F0C9
:101090004FFA012084F8460084F83E0084F83F00AF
:1010A00084F8400084F8410084F8420084F843004A
:1010B00084F8440084F8450084F83D00002010BD09
:1010C00008B50068B0F1804F08D10548C16941F00A
:1010D0000101C161C06900F00100009008BD00007D
:1010E0000010024010B50446022249B104290ED076
:1010F000082913D094F84100012816D0012010BD12
:1011000094F83E000128F9D184F83E200FE094F8CD
:101110003F000128F2D184F83F2008E094F8400015
:101120000128EBD184F8402001E084F8412001221D
:10113000206800F033FA0F492068884203D1426CDE
:1011400042F4004242642068884208D0B0F1804FE7
:1011500005D00949884202D00849884204D18168F3
:1011600001F00701062903D0016841F00101016087
:10117000002010BD002C0140000400400008004089
:101180007047704770B5040004D094F83D00002506
:1011900010B106E0012070BD84F83C50204600F0FC
:1011A00023F8242084F83D002068C16821F4005110
:1011B000C160204600F058FB2068016921F490418D
:1011C00001612068416921F02A0141612068C168FC
:1011D00041F40051C1602564202084F83D0084F86A
:1011E0003E00002070BD000070B586B000250646A8
:1011F000009501950295039500681E49884237D1F4
:101200001D49886940F480408861886900F4804005
:101210000490886940F0040088618869174C00F0E8
:1012200004000490481500900220019003200390D0
:1012300069462046FFF778F92015CDE90005694693
:1012400020460295FFF770F90E4C0D48C4E90005E1
:101250008020C4E9025020202561C4E905502046C1
:10126000E561FFF7FBF808B1FFF74CF8B46366627D
:1012700006B070BD00380140001002400008014077
:10128000580002400C01002090F83E30202B0ED177
:1012900059B152B190F83C30012B08D0012380F8AD
:1012A0003C300023036300F03BBB01207047022069
:1012B000704770477047FEE7094808B5416941F03B
:1012C000010141614069002200F001000090052108
:1012D0000F20FFF78FFABDE808400F20FFF77CBA18
:1012E000001002402DE9F04385B00024244800940A
:1012F000019402940394816941F010018161816934
:1013000001F010010491816941F02001816181693E
:1013100001F020010491816941F00401816181693A
:1013200001F004010491816941F008018161806943
:10133000DFF8508000F008004FF4005504900022C0
:1013400029464046FFF7E5F9DFF83C9000222946A0
:101350004846FFF7DEF90227012603970095CDE9FD
:10136000016469464046FFF7DFF803970095CDE931
:10137000016469464846FFF7D7F805B0BDE8F08339
:101380000010024000100140000C014010B58AB06E
:10139000002407941C2168460894FEF715FF1648A0
:1013A0004FF08041016040F21F31C0E9011440F26A
:1013B000E731C0E903148461FFF755FE08B1FEF779
:1013C000A1FF079407A90C480894FFF7D5FC08B1C2
:1013D000FEF798FF6020CDE90004029400226946E0
:1013E00005480494FFF7DCFD08B1FEF78BFF0248C7
:1013F000FFF7A4FD0AB010BD3800002010B58EB074
:1014000000240794089409940A940B941C216846BC
:101410000C94FEF7D9FE1E481C4901601121C0E959
:10142000011440F2E731C0E903148461FFF7D8FCEE
:1014300008B1FEF767FF4FF48050079007A91448E2
:10144000FFF710FD08B1FEF75DFF1148FFF70BFE37
:1014500008B1FEF757FF0B940BA90D480C94FFF74A
:101460008BFC08B1FEF74EFF6020CDE9000402942A
:101470000022694606480494FFF792FD08B1FEF782
:1014800041FF0348FFF75AFD0EB010BD00040040B5
:10149000800000200C4810B50A4901604FF4E1318A
:1014A0004160002181600C22C160C0E904128161A9
:1014B000C161FFF767FE002803D0BDE81040FEF7CA
:1014C00021BF10BD00380140C8000020FEE7FEE744
:1014D00070477047FFF728B930B58FB028216846AC
:1014E000FEF772FE14210AA8FEF76EFE0120022507
:1014F00004900095102005900024CDE9075468461B
:101500000994FFF795FA08B172B6FEE70F200A902A
:10151000CDE90B540D9400210AA80E94FFF79CF915
:10152000002801D072B6FEE70FB030BD7047000052
:10153000F0B50268164B174C174D4FF08047984294
:1015400005D0B84203D0A04201D0A84203D122F076
:1015500070064A683243984205D0B84203D0A04290
:1015600001D0A84203D122F44074CA6822434C69D6
:1015700022F08002224302608A68C2620A688262A4
:10158000984201D10969016301214161F0BD000068
:10159000002C0140000400400008004010B501F09C
:1015A0001F030121046A99408C430462016A9A4036
:1015B0001143016210BD10B5846842EA032224F48D
:1015C0007F440A432243826010BD826822F0700289
:1015D0000A4342F0070181607047000030B5026A9B
:1015E00022F001020262026A4368846924F07305F2
:1015F0000C682C4322F002058A682A430A4DA8424F
:101600000BD122F00805CA6823F440732A434D69C0
:1016100022F004021D438B692B43436084614968B7
:101620004163026230BD0000002C014030B5026A07
:1016300022F010020262026A436884690D6824F491
:10164000E64444EA05248D6822F0200242EA0512AD
:101650000B4DA8420ED1CD6822F0800242EA05125D
:101660004D6923F4406343EA85038D6922F040020B
:1016700043EA85034360846149688163026230BD47
:10168000002C014030B5026A22F480720262036AC3
:101690004268C46923F4007324F073050C682C437A
:1016A0008D6843EA05230C4DA8420ED1CD6823F482
:1016B000006343EA05234D6922F4405242EA0512D1
:1016C0008D6923F4806342EA05124260C46149686F
:1016D000C163036230BD0000002C014030B5026AD6
:1016E00022F480520262046A4268C3690D6823F4DE
:1016F000E64343EA05238D6824F4005444EA0534A4
:10170000064DA84204D14D6922F4804242EA851276
:101710004260C36149680164046230BD002C01402D
:1017200010B5036A046A24F001040462846924F099
:10173000F00444EA021423F00A020A4384610262BC
:1017400010BD10B5036A23F0100303628369046AB5
:1017500023F4704343EA023224F0A00343EA011168
:101760008261016210BD70B5446A2068406994F8D6
:101770003D10C0F3C0100025212904D118B1E58423
:10178000204600F067F82068406994F83E10C0F3E6
:101790008010222904D118B1E585204600F042F8D6
:1017A000206C40F0100020642046FFF7EAFC70BD7A
:1017B00010B50146406A0968096889061BD40021F2
:1017C000C1850168CA6822F48072CA6001684A69EA
:1017D00022F001024A6101684A6922F040024A612E
:1017E000202180F83E10016B012904D10168CA68EC
:1017F00022F01002CA60016B012902D0FFF759FDE7
:1018000010BD818DFFF7BCFC10BD10B5406A016BA7
:10181000012902D0FFF74EFD10BD818D4908FFF769
:10182000AFFC10BD0168CA6822F49072CA600168FA
:101830004A6922F001024A61016B012904D1016861
:10184000CA6822F01002CA60202180F83E100021F0
:10185000016370470168CA6822F0C002CA60202193
:1018600080F83D107047000070B5044600680169BB
:10187000E26821F44051114301612169A0680843E5
:10188000616908432168CA6841F20C639A430243C4
:10189000CA6020684169A26921F440711143416125
:1018A0001E492068884202D1FFF77CF801E0FFF76B
:1018B00069F800EBC00101EB001260686421800050
:1018C000B2FBF0F3B3FBF1F36FF018067343B2FB16
:1018D000F0F5B2FBF0F605EB8305322303EB0515BB
:1018E000B5FBF1F5B6FBF1F605F0F00505EB0615D5
:1018F000B2FBF0F6B2FBF0F0B0FBF1F06FF01802C3
:10190000504306EB800003EB0010B0FBF1F02168C0
:1019100000F00F002844886070BD000000380140CE
:1019200038B581628285002513460446056422206D
:1019300084F83E00A26B13489062A26B1248D062FA
:10194000A26B12481063A06B0A4645632168A06B26
:10195000091DFEF7B1FD206801684168009184F817
:101960003C50C16841F48071C1602068416941F018
:10197000010141612068416941F04001416100205D
:1019800038BD0000B11700080B18000867170008E1
:10199000FEE70907090E002804DB00F1E02080F8CB
:1019A0000014704700F00F0000F1E02080F8141DD3
:1019B0007047000008B5FEF7BFFE2A48816941F074
:1019C000040181618069012100F004000090264833
:1019D000264C016000214160816001462046FEF7EF
:1019E000A3FDFFF779FDFFF77DFCFFF765FCFFF72F
:1019F00005FDFFF74FFDFFF7C9FC00211C48FFF76D
:101A000071FB00211B48FFF76DFB04221A491B489C
:101A1000FFF73AFCA2466514174C164FDFF860B08A
:101A2000134E4FF4C8780C3C40F2EE291248FEF7F2
:101A30002FFC012229465846FEF76BFE002229465C
:101A40001048FEF766FE3968606848630121504619
:101A5000FEF75AFE20B14846A06031684863E5E7CA
:101A60004046F9E70010024028000020000801402D
:101A700080000020380000200C000020C80000205A
:101A800000100140000C01400000000000000000B8
:101A90000102030406070809000000000102030414
:101AA000C01A0008000000202800000028010008DB
:101AB000E81A0008280000208807000044010008F8
:101AC0000000000000000000000000000000000016
:101AD00000000000000000000100000010000000F5
:081AE000000000000024F400E6
:04000005080000ED02
:00000001FF
