:020000040800F2
:1000000088170020210200080B1E0008431B00086F
:10001000091E00086D0400082924000800000000E3
:10002000000000000000000000000000890100083E
:100030002305000800000000CD010008D91E0008BB
:100040003B0200083B0200083B0200083B0200089C
:100050003B0200083B0200083B0200083B0200088C
:100060003B0200083B0200083B0200083B0200087C
:100070003B0200083B0200083B020008ED040008B8
:100080003B0200083B0200088D0300083B02000809
:100090003B0200083B0200083B0200083B0200084C
:1000A0003B0200083B0200083B0200083B0200083C
:1000B0003B0200083B0200083B0200083B0200082C
:1000C0003B0200083B0200083B0200083B0200081C
:1000D0003B0200083B0200083B0200083B0200080C
:1000E0003B0200083B0200083B02000800F002F857
:1000F00000F03AF80AA090E8000C82448344AAF188
:100100000107DA4501D100F02FF8AFF2090EBAE885
:100110000F0013F0010F18BFFB1A43F0010318473B
:10012000742E0000942E0000103A24BF78C878C1C5
:10013000FAD8520724BF30C830C144BF04680C60ED
:10014000704700000023002400250026103A28BF35
:1001500078C1FBD8520728BF30C148BF0B60704739
:100160001FB51FBD10B510BD00F0D6F81146FFF742
:10017000F7FF02F06BF900F0F4F803B4FFF7F2FFB9
:1001800003BC00F0FBF80000224B19680868B0E8D7
:10019000F00F80F30988BFF36F8F4FF0000080F3FA
:1001A00011884EF00D0E70470000000006480068F0
:1001B000006880F3088862B661B6BFF34F8FBFF363
:1001C0006F8F00DF00BF00BF08ED00E0EFF3098094
:1001D000BFF36F8F0F4B1A6820E9F00F106008B55E
:1001E0004FF0500080F31188BFF34F8FBFF36F8F34
:1001F00002F0D8FC4FF0000080F31188BDE8084001
:1002000019680868B0E8F00F80F30988BFF36F8FB2
:10021000704700BF38000020EFF3058070470000F2
:100220000948804709480047FEE7FEE7FEE7FEE78A
:10023000FEE7FEE7FEE7FEE7FEE7FEE704480549C6
:10024000054A064B70470000611F0008ED000008DA
:1002500088110020881700208813002088130020B0
:1002600010B5203AC0F00B80B1E81850203AA0E851
:100270001850B1E81850A0E81850BFF4F5AF5FEA85
:10028000027C24BFB1E81850A0E8185044BF18C938
:1002900018C0BDE810405FEA827C24BF51F8043BDF
:1002A00040F8043B08BF7047D20728BF31F8023B33
:1002B00048BF11F8012B28BF20F8023B48BF00F8C7
:1002C000012B70474FF0000200B513469446964646
:1002D000203922BFA0E80C50A0E80C50B1F1200159
:1002E000BFF4F7AF090728BFA0E80C5048BF0CC007
:1002F0005DF804EB890028BF40F8042B08BF704765
:1003000048BF20F8022B11F0804F18BF00F8012BD6
:100310007047704770477047754600F02BF8AE463F
:1003200005006946534620F00700854618B020B501
:10033000FFF784FFBDE820404FF000064FF00007B4
:100340004FF000084FF0000B21F00701AC46ACE87D
:10035000C009ACE8C009ACE8C009ACE8C0098D46EA
:10036000704710B50446AFF300802046BDE810404A
:10037000FFF703BF004870472411002001491820EF
:10038000ABBEFEE72600020070470000014800F007
:100390007BB90000EC02002070B50446006881685B
:1003A000C943C90717D1816821F00101816000F0BC
:1003B00035FD05460AE000BF00F030FD401B022875
:1003C00004D920688068C043C00706D020688068D0
:1003D000C043C007F0D0002070BDA06A40F01000FC
:1003E000A062E06A40F00100E062012070BD000000
:1003F000F8B500260446009600688168C943C9071D
:100400002DD0816841F001018160164816490068CD
:10041000B0FBF1F000E0401E00900028FBD100F09E
:10042000FDFC054616E000BF00F0F8FC401B02286A
:1004300010D920688068C043C0070BD0A06A40F084
:100440001000A062E06A40F00100E06284F82460DD
:100450000120F8BD20688068C043C007E4D10020B7
:10046000F8BD00003400002040420F00FEE700000D
:10047000827809490A2A04D00020C8600A2008614D
:1004800070470278303A02EB82025200CA6040782C
:10049000303A1044C860F2E7000000200A2190FBC7
:1004A000F1F201FB120390FBF1F00F4A30331371AC
:1004B00090FBF1F301FB130390FBF1F03033D370A9
:1004C00090FBF1F301FB130390FBF1F030339370D9
:1004D00090FBF1F301FB130390FBF1F03033537009
:1004E000303010707047000020000020014800F0FC
:1004F0007DBA0000F003002030B590F84050012490
:10050000AC40C56B6C60046863604368102B036883
:1005100003D099600068C26030BD9A600068C16015
:1005200030BD704772B6FEE77047000030B590F8F6
:100530002420012A1ED0012280F824200A7A012AD0
:100540000268536818D023F040035360D1E90023B8
:100550001A4303685C680A4D2C4022435A600368C2
:10056000CA685A62026809699162002180F8241001
:10057000084630BD022030BD43F04003E5E70000EF
:10058000E0FD3FFFF8B50024009490F824202546B4
:10059000012A12D0012280F824204A681F23072A4A
:1005A0000DD20668776B521E02EB820293409F4386
:1005B0000B6893401F43776319E00220F8BD06687B
:1005C0000D2A0AD2376BD21F02EB820293409F435F
:1005D0000B6893401F43376309E0F76A0D3A02EB5B
:1005E000820293409F430B6893401F43F7620A685F
:1005F000072306680A2A0AD3F7680A3A02EB42027E
:1006000093409F438B6893401F43F76008E037692E
:1006100002EB420293409F438B6893401F43376134
:100620000A68102A01D0112A20D1124B02689A427E
:1006300017D193681B0219D4936843F400039360A5
:100640000968102912D10C490C4A0968B1FBF2F172
:1006500001EB8101490000E0491E00910029FBD116
:1006600004E0816A41F020018162012480F8245075
:100670002046F8BD002401403400002040420F0015
:1006800070470068C06C704710B504460068416848
:10069000890626D50168890723D5A16AC90603D42E
:1006A000A16A41F40071A1628168C1F34241072946
:1006B00010D1217B71B9416821F020014160A06A0D
:1006C00020F48070A062A06AC00403D4A06A40F045
:1006D0000100A0622046FFF7D3FF21686FF01200EF
:1006E00008602068416809062ED5016849072BD5A6
:1006F000A16AC90603D4A16A41F40051A1628168CC
:10070000C1F30231072909D04168490515D4816830
:10071000C1F34241072910D1217B71B9416821F011
:1007200080014160A06A20F48050A062A06AC005E8
:1007300003D4A06A40F00100A0622046FFF7F4FE57
:1007400021686FF00C0008602068416849060DD5EB
:100750000068C0070AD0A06A40F48030A06220463A
:1007600000F094F821686FF00100086010BD0000EF
:100770002DE9F0414FF0000704003D467ED0A06A0D
:10078000002628B9E66284F82460204600F080F84C
:100790002046FFF701FEA16AC90600D420B1A06A75
:1007A00040F01000A06269E0A16A21F4885141F094
:1007B0000201A1626268E169237B0A4347EA4301BF
:1007C0000A43A1684FF48077B94209D0012907D0C4
:1007D0005FF0000194F814C0BCF1010F02D00AE0F0
:1007E0003946F7E7F3B1A36A43F02003A362E36A53
:1007F00043F00103E3622368D3F804C02CF4694C8E
:100800004CEA010CC3F804C021688B68DFF870C0A3
:1008100003EA0C0313438B60A168B9420BD0012992
:1008200009D00CE0DFF85CC0A3690CEB43330B4349
:1008300043F40061DFE7218A0D05A5F580152168E5
:10084000CB6A23F470032B43CB62216889680E4B7B
:100850001940914208D1E662A16A21F0020141F0FB
:100860000101A162BDE8F081A06A20F0020040F021
:100870001000A062E06A40F00100E0620120F1E7B0
:10088000FDF7E1FF00E0FFFFFE0E1FFF70470000D5
:1008900000B585B00021009101910291039100689B
:1008A0001249884220D11248816941F40071816166
:1008B000816901F400710491816941F00401816151
:1008C0008069694600F00400049010200090032025
:1008D0000190084800F0ACF900220521122000F038
:1008E0000FFB122000F0FEFA05B000BD002401400D
:1008F000001002400008014070B5044690F8240042
:1009000001280DD0012084F824002046FFF770FD57
:1009100002004FF0000005D084F82400104670BD9E
:10092000022070BDA16A40F20123994341F4807115
:10093000A1621F4D23681F49AB4218D10E6816F4FF
:10094000702F14D0A66A46F48016A6620E6876054B
:1009500005D5A66A26F4005646F48056A662A66A15
:10096000F6040AD5E66A26F00606E66206E0A66AFE
:1009700026F48016A6625E68E9E7E06284F8240047
:100980006FF00200186020688368C3F34243072BAE
:1009900005D1A84208D1096811F4702F04D08168EC
:1009A00041F480118160B9E7816841F4A001F9E761
:1009B000002801400424014010B5044690F82400AA
:1009C000012807D0012084F824002046FFF7E4FC2A
:1009D00010B107E0022010BDA16A21F4885141F056
:1009E0000101A162002184F8241010BD2DE9F05FFF
:1009F000C16B0C6801680B68D0F840C0042202FA91
:100A00000CF2494DDFF824A1494E4A4FDFF828B1D6
:100A1000DFF828E122422CD05A072AD50A6892062C
:100A200003D40A6822F004020A600168A94201D1D5
:100A3000042219E0514501D1402215E0B14202D112
:100A40004FF4806210E0B94202D14FF480420BE0D3
:100A5000594502D14FF4802206E0714502D14FF48E
:100A6000800201E04FF080622F4908394A60C16A74
:100A70003BE04FF0020808FA0CF818EA040F4FF0B8
:100A800000094FF0010235D05FEA837832D50B6858
:100A90009B0605D40B6823F00A030B6080F8212025
:100AA0000168A94201D1022219E0514501D1202259
:100AB00015E0B14202D14FF4007210E0B94202D108
:100AC0004FF400520BE0594502D14FF4003206E0DA
:100AD000714502D14FF4001201E04FF0007212494B
:100AE00008394A6080F82090816A00291AD0BDE850
:100AF000F05F0847082505FA0CF5254212D01B07C0
:100B000010D50B6823F00E030B6090F84010C36BF8
:100B100002FA01F15960826380F8212080F8209068
:100B2000016BE2E7BDE8F09F080002401C000240B4
:100B30003000024044000240580002406C00024075
:100B400030B528B308C8134914221944B1FBF2F197
:100B50008900C16310498163022141771A6843F615
:100B6000F0718A43D0E900142143D0E902452C43B7
:100B7000214304692143446921438469214311438A
:100B8000196000214163012242770177084630BD98
:100B9000012030BDF8FFFDBF0000024070B50446E3
:100BA00090F82000002501280CD0012084F82000B6
:100BB00094F821600020012E06D084F82000022540
:100BC000284670BD022070BD022684F82160A06313
:100BD0002068066826F0010606602046FFF78CFCB8
:100BE000E06A00282068016802D041F00E0106E0AA
:100BF00021F0040101602068016841F00A010160F0
:100C00002068016841F001010160D9E770B5044630
:100C100000F004F90546601C02D004480078044442
:100C200000F0FCF8401BA042FAD370BD2800002061
:100C30002DE9F84FDFF8B891002409F1040A0AF110
:100C4000040B23460F270BF1040EC9E00125A54034
:100C50002A40AA427DD1674ED1F804C0ACEB060809
:100C6000B44532D014DCBCF1030F3AD009DCBCF13E
:100C7000000F2AD0BCF1010F1CD0BCF1020F31D102
:100C80001DE0BCF1110F17D0BCF1120F2AD119E0F1
:100C9000B8F5881F19D006DCB8F5803F15D0B8F537
:100CA000801F1FD111E0B8F5001F0ED0B8F5041F4A
:100CB00018D10AE0CB6815E0CB681B1D12E0CB68A9
:100CC00008330FE0CB680C330CE08B682BB1012BA1
:100CD0004FF0080303D0456104E0042302E00561FE
:100CE00000E00023FF2A01D8064601E000F10406D7
:100CF0004FEA840501D9A5F12005D6F8008007FA4E
:100D000005FC28EA0C0803FA05F548EA0508C6F8C8
:100D100000804D68ED0062D5374DAE6946F00106A2
:100D2000AE61AD6924F0030605F001050095334D71
:100D300006EB050CDCF80850A607360F07FA06F894
:100D400025EA0805DFF8B880404503D14FF00008D8
:100D500017E044E0DFF8AC80404502D14FF00108D5
:100D60000FE0DFF8A480404502D14FF0020808E010
:100D7000DFF89880404502D14FF0030801E04FF0C2
:100D8000040808FA06F848EA0508CCF808804D6817
:100D9000D9F80060ED034D4601D5164300E09643B7
:100DA0002E604D68DAF80060AD03554601D5164354
:100DB00000E096432E604D68DBF80060ED025D4672
:100DC00001D5164300E096432E604D68DEF80060C2
:100DD000AD02754601D5164300E096432E60641CB3
:100DE0000D682A46E5407FF431AFBDE8F88F00007A
:100DF00000040140000011100010024000000140FA
:100E000000080140000C01400010014000140140A6
:100E10000AB1016170470904FBE7000001488068DE
:100E200070470000280000200248816802781144C1
:100E30008160704728000020074810B5016841F024
:100E400010010160032000F07BF80F2000F006F88D
:100E500000F024F8002010BD0020024070B50D4DB8
:100E600004464FF47A712878B1FBF0F00A4909681A
:100E7000B1FBF0F000F068FB48B9102C07D200225B
:100E80002146501E00F03CF800206C6070BD01202F
:100E900070BD000028000020340000200F4808B575
:100EA000816941F001018161816901F001010091D5
:100EB000C16941F08051C161C069002200F08050D9
:100EC00000900F21901E00F01BF80548416821F0AA
:100ED000E06141F00071416008BD00000010024077
:100EE00000000140002809DB00F01F0201219140B1
:100EF0004009800000F1E020C0F8001170470000B8
:100F0000F0B40E4B1B680C46C3F30223C3F1070574
:100F1000042D00D90425191D072901D2002300E062
:100F2000DB1E012606FA05F1491E214099409E402C
:100F3000761E16403143F0BC01F077BA0CED00E0AC
:100F4000064900F0070208684FF6FF03184040EA20
:100F50000220034A10430860704700000CED00E0D7
:100F60000000FA052DE9F84305460078354CC00726
:100F700054D0E0690026C00008D4E06940F08050F9
:100F8000E061E069012600F0805000902E48016881
:100F9000C90512D40168804641F480710160FFF7F1
:100FA0003DFF074605E000BFFFF738FFC01B642880
:100FB00023D8D8F80000C005F6D5206A10F4407098
:100FC00021D0A98801F4407181421CD0206A1F49B8
:100FD000012220F440700A6000220A602062C007EB
:100FE00011D0FFF71BFF074641F2883808E000BF29
:100FF000FFF714FFC11B414502D90320BDE8F88368
:10100000206A8007F4D5206A696820F4407008439C
:1010100020621EB1E06920F08050E06128788007EE
:1010200005D56068A96820F44040084360602878CE
:10103000C00605D56068E96820F480000843606058
:101040000020DBE7001002400070004040044242F4
:101050002DE9F0470F46050061D0434E306800F09F
:101060000700B84209D2306820F0070038433060EA
:10107000306800F00700B84251D128683B4C810726
:1010800012D5400703D5606840F4E06060602878BE
:10109000000703D5606840F4605060606068A9682C
:1010A00020F0F000084360602878C00728D0686806
:1010B000012810D02168022810D0890700292EDAD3
:1010C000616821F0030101436160FFF7A7FE8046DC
:1010D00041F288390DE021688903EFE78901EDE7E6
:1010E000FFF79CFEA0EB0801494502D90320BDE8AB
:1010F000F0876068696800F00C00B0EB810FEFD1F9
:10110000306800F00700B8420BD9306820F00700C3
:1011100038433060306800F00700B84201D0012049
:10112000E5E72878400705D56068E96820F4E060C5
:10113000084360602878000706D56068296920F4B4
:10114000605040EAC100606000F038F86168084A09
:10115000C1F30311515CC8400649086006480068A5
:10116000FFF77CFE0020C2E7002002400010024092
:10117000642F0008340000202C000020044805499A
:1011800000684968044AC1F30221515CC8407047B5
:101190003400002000100240742F00080448054964
:1011A00000684968044AC1F3C221515CC8407047D5
:1011B0003400002000100240742F000812A185B0F6
:1011C0000FC98DE80F0014A0144A006804905168FC
:1011D000134801F00C03042B10D0082B0ED1C1F3DF
:1011E0008343C9031DF803000AD5516804AAC1F35B
:1011F0004041515C0A4A5043B0FBF1F005B07047E2
:1012000008494843FAE700000203040506070809F5
:101210000A0B0C0D0E0F101001020000001002400E
:1012200000127A0000093D002DE9F84F040070D04B
:101230002078C04DC00749D06868C0F381000128FC
:1012400007D06868C0F38100022809D16868C0032C
:1012500006D52868800339D560680028E7D035E0D6
:101260006068B0F5803F0BD010B1B0F5A02F11D061
:10127000286820F480302860286820F4802002E06C
:10128000286840F480302860606890B1FFF7C6FDA0
:1012900006460AE0286840F480202860F0E700BF96
:1012A000FFF7BCFD801B642873D828688003F7D53E
:1012B0000CE0FFF7B3FD064605E000BFFFF7AEFD0B
:1012C000801B6428F0D828688003F7D420789A4ED1
:1012D00080074FF001094FF0000839D5686810F019
:1012E0000C0F07D06868C0F38100022809D1686834
:1012F000C00306D42868800714D52069012808D1C6
:1013000010E02069B0B1C6F80090FFF787FD0746EE
:1013100005E00AE1FFF782FDC01B0228C4D8286857
:101320008007F7D52868616920F0F80040EAC1001D
:1013300028600DE0C6F80080FFF770FD074604E066
:10134000FFF76CFDC01B022823D828688007F7D45C
:10135000207800072CD57948A169D9B1C0F8009050
:10136000FFF75CFD074604E0FFF758FDC01B0228AD
:101370000FD8686A8007F7D571484FF4FA510068B2
:10138000B0FBF1F0009000BF0098411E0091FAD22E
:101390000EE080E0C0F80080FFF740FD074604E063
:1013A000FFF73CFDC01B022875D8686A8007F7D498
:1013B0002078400760D5E8690027C00008D4E869B4
:1013C00040F08050E861E869012700F0805000900B
:1013D0005C480168C90513D40168834641F48071F3
:1013E0000160FFF71BFD824606E000BFFFF716FD18
:1013F000A0EB0A0064284ED8DBF80000C005F5D544
:10140000E06801280AD008B1052813D0286A20F026
:1014100001002862286A20F0040002E0286A40F0F7
:1014200001002862E06841F2883B98B1FFF7F6FCC2
:1014300082460BE0286A40F004002862EEE700BF15
:10144000FFF7ECFCA0EB0A0159455AD8286A80073F
:10145000F6D50CE0FFF7E2FC824605E0FFF7DEFC84
:10146000A0EB0A0159454CD8286A8007F6D41FB171
:10147000E86920F08050E861E06988B36968C1F3E9
:101480008101022944D00228C6F8608004D0FFF709
:10149000C5FC044638E034E0FFF7C0FC074604E032
:1014A000FFF7BCFCC01B02282BD828688001F7D4AA
:1014B000206AB0F5803F05D16868A16820F400304B
:1014C00008436860D4E908010843696821F474118D
:1014D00008436860C6F86090FFF7A0FC044606E089
:1014E00025E000BFFFF79AFC001B022809D82868F6
:1014F0008001F7D51BE000BFFFF790FC001B02281E
:1015000002D90320BDE8F88F28688001F4D40EE0EA
:101510000128F7D06868226A00F48031914204D132
:10152000616A00F47010884201D00120EAE70020CF
:10153000E8E70000001002400000424280044242FE
:10154000340000200070004010B5401EB0F1807FD4
:1015500001D3012010BD4FF0E02460610F2160171E
:1015600000F063FF0020A06107202061002010BD73
:1015700070B590F83C20012A26D0012480F83C4028
:10158000022280F83D2003685A689D6822F07006A8
:101590000A6832435A600D4B02689A4208D0B2F191
:1015A000804F05D00A4B9A4202D00A4B9A4204D18E
:1015B000496825F080031943916080F83D4000217F
:1015C00080F83C10084670BD022070BD002C014020
:1015D000000400400008004010B5040003D094F857
:1015E0003D0010B107E0012010BD002084F83C0050
:1015F000204600F01FF8022084F83D00211D2068DD
:1016000000F0B0FC012084F8460084F83E0084F825
:101610003F0084F8400084F8410084F8420084F8D8
:10162000430084F8440084F8450084F83D0000201D
:1016300010BD000008B50C4A01680C48914207D162
:10164000816941F400618161806900F4006009E012
:10165000074A914207D1C16941F00201C161C069E5
:1016600000F00200009008BD002C01400010024074
:101670000004004070B5044690F83C00012817D0E3
:10168000012584F83C50022084F83D0020688268DF
:1016900022F0770222F47F4282600868502830D01E
:1016A0000DDC20284DD005DC98B310283BD148E054
:1016B000022070BD302844D0402834D139E0602861
:1016C00028D0702806D0B0F5805F2CD0B0F5005F30
:1016D00029D10AE0CB68D1E90121206800F085FC1E
:1016E0002068816841F0770109E0CB68D1E90121E8
:1016F000206800F07AFC2068816841F480418160B4
:1017000011E0CA684968206800F024FD5021206873
:1017100007E016E0CA684968206800F02CFD6021E7
:10172000206800F06CFC84F83D50002084F83C00F8
:1017300070BDCA684968206800F00CFD402120682F
:10174000EFE7226801461046EBE7000000B585B0E0
:101750000021009101910291039100680B49884298
:1017600011D10B48816941F00401816180696946AA
:1017700000F00400049040200090022001900390AB
:101780000448FFF755FA05B000BD00000004004012
:10179000001002400008014070B5044690F83C007B
:1017A0000D4601280AD0012084F83C0042B1042AE9
:1017B00018D0082A2AD00C2A4DD139E0022070BD59
:1017C000206800F025FC2068816941F008018161F2
:1017D0002068816921F004018161206881692A699A
:1017E000114311E0206800F03BFC2068816941F45E
:1017F000006181612068816921F4806181612068D4
:1018000081692A6941EA0221816124E0206800F0AF
:1018100053FC2068C16941F00801C1612068C169B9
:1018200021F00401C1612068C1692A69114311E0F6
:10183000206800F06DFC2068C16941F40061C1615D
:101840002068C16921F48061C1612068C1692A6989
:1018500041EA0221C161002084F83C0070BD10B54E
:10186000040003D094F83D0010B107E0012010BD42
:10187000002084F83C00204600F01EF8022084F886
:101880003D00211D206800F06DFB012084F846001A
:1018900084F83E0084F83F0084F8400084F841005A
:1018A00084F8420084F8430084F8440084F845003A
:1018B00084F83D00002010BD7047000010B50446BC
:1018C000022249B104290ED0082913D094F841000E
:1018D000012816D0012010BD94F83E000128F9D14E
:1018E00084F83E200FE094F83F000128F2D184F8FC
:1018F0003F2008E094F840000128EBD184F8402014
:1019000001E084F841200122206800F061FB0F49CA
:101910002068884203D1426C42F40042426420684D
:10192000884208D0B0F1804F05D00949884202D0E2
:101930000849884204D1816801F00701062903D0D3
:10194000016841F001010160002010BD002C014040
:1019500000040040000800407047704770B5040064
:1019600004D094F83D00002510B106E0012070BDC0
:1019700084F83C50204600F023F8242084F83D00F1
:101980002068C16821F40051C160204600F086FC47
:101990002068016921F4904101612068416921F0CA
:1019A0002A0141612068C16841F40051C160256489
:1019B000202084F83D0084F83E00002070BD000027
:1019C00070B586B0002506460095019502950395F1
:1019D00000681E49884237D11D49886940F480401B
:1019E0008861886900F480400490886940F00400B0
:1019F00088618869174C00F0040004904815009035
:101A0000022001900320039069462046FFF710F959
:101A10002015CDE90005694620460295FFF708F933
:101A20000E4C0D48C4E900058020C4E90250202076
:101A30002561C4E905502046E561FFF781F808B14A
:101A4000FEF770FDB463666206B070BD00380140F9
:101A5000001002400008014058000240F00300203E
:101A600090F83E30202B0ED159B152B190F83C3055
:101A7000012B08D0012380F83C300023036300F0E1
:101A800069BC012070470220704770477047000012
:101A90002DE9F843044690F83D001F4616460D46D2
:101AA00020284CD1C5B1BEB194F83C00012846D0E5
:101AB000012084F83C004FF00008C4F84080212049
:101AC00084F83D00FFF7AAF9A6848146E684A06861
:101AD000B0F5805F03D004E00120BDE8F883206901
:101AE00028B12E465FF0000584F83C800EE0002609
:101AF000FAE78021204600F065FCA0B9AEB116F8E7
:101B0000010B21684860E08C401EE084E08C4B466D
:101B10004FF0000200970028EBD14FF04001204623
:101B200000F050FC30B10320D7E735F8020BC0F3CA
:101B30000800E6E7202084F83D000020CDE70220E1
:101B4000CBE7FEE770B58AB018216846FEF7BAFB0E
:101B5000002419480694079408941649846001608B
:101B600004730475012505614FF460214460C1616F
:101B7000FEF7FEFD08B1FEF7D5FC10480426CDE9BE
:101B80000006039404948DF8084069460A48FEF75D
:101B9000CDFC08B1FEF7C6FC07200696CDE907503C
:101BA00006A90548FEF7EEFC002801D0FEF7BAFCB6
:101BB0000AB070BD00240140EC0200200002800049
:101BC000094808B5416941F00101416140690022BD
:101BD00000F00100009005210F20FFF791F9BDE80A
:101BE00008400F20FFF77EB90010024010B58EB0FC
:101BF0001C220B496846FEF733FB0021684600F0C3
:101C00005FFC084C06491C22A0611C3107A8FEF7A6
:101C100027FB002107A800F053FCE0610EB010BDC7
:101C20002C2F0008000000202DE9F04385B000248F
:101C300024480094019402940394816941F01001B6
:101C40008161816901F010010491816941F02001F5
:101C50008161816901F020010491816941F00401F1
:101C60008161816901F004010491816941F00801F9
:101C700081618069DFF8508000F008004FF4005562
:101C80000490002229464046FFF7C2F8DFF83C9056
:101C9000002229464846FFF7BBF802270126039792
:101CA0000095CDE9016469464046FEF7C1FF039700
:101CB0000095CDE9016469464846FEF7B9FF05B0D5
:101CC000BDE8F0830010024000100140000C01400C
:101CD00010B586B000241748009401940294039430
:101CE00004941349059401602321C0E9011440F2D2
:101CF000E731C0E9031444618461FFF76DFC08B16A
:101D0000FEF710FC4FF48050009069460948FFF739
:101D1000B1FC08B1FEF706FC049404A9054805943B
:101D2000FFF726FC002801D0FEF7FCFB06B010BD33
:101D3000002C01401C03002010B58EB00024079435
:101D4000089409940A940B941C2168460C94FEF79D
:101D5000B9FA1E481C4901601121C0E9011440F282
:101D6000E731C0E903148461FFF736FC08B1FEF7E0
:101D7000D9FB4FF48050079007A91448FFF77AFC6D
:101D800008B1FEF7CFFB1148FFF769FD08B1FEF778
:101D9000C9FB0B940BA90D480C94FFF7E9FB08B1A4
:101DA000FEF7C0FB6020CDE90004029400226946E2
:101DB00006480494FFF7F0FC08B1FEF7B3FB0348B4
:101DC000FFF7C4FC0EB010BD000400406403002007
:101DD0000C4810B50A4901604FF4E131416000211F
:101DE00081600C22C160C0E904128161C161FFF70A
:101DF000B5FD002803D0BDE81040FEF793BB10BD31
:101E000000380140AC030020FEE7FEE710B50848AB
:101E1000FEF772FD6420FEF7F9FE0548FEF731FC7F
:101E200004494860BDE810400148FEF7C5BD000008
:101E3000EC020020000000200B4D4FF4FA7400BFAC
:101E4000FFF7E4FF6868FEF729FB07490A2305222C
:101E500020310648FFF71CFE204600F025FB024813
:101E6000FEF706FBECE7000000000020AC030020BA
:101E7000DFF854A0DFF854B0154D164F4FF4005959
:101E800040F2EE264FF4C87801224C4649465046AF
:101E9000FEF7BEFF002221465846FEF7B9FF002498
:101EA0002869844203DA6E613868466304E0C5F845
:101EB00014803968C1F83480012000F0F5FA641C00
:101EC000E4B2642CECD3DFE700100140000C0140C9
:101ED000000000206403002010B5FEF7A5FF00F00D
:101EE00051FF012803D0BDE8104000F0DDBE10BD59
:101EF00030B593B028216846FEF7E4F914210AA80A
:101F0000FEF7E0F9002401200F94022504900095CB
:101F100010200590109411941294CDE9075468464E
:101F20000994FFF781F908B172B6FEE70F200A9015
:101F3000CDE90B540D9400210AA80E94FFF788F800
:101F400008B172B6FEE74FF4804011900F950FA8CC
:101F5000FFF708F8002801D072B6FEE713B030BDD5
:101F600070470000F0B50268164B174C174D4FF044
:101F70008047984205D0B84203D0A04201D0A84281
:101F800003D122F070064A683243984205D0B84225
:101F900003D0A04201D0A84203D122F44074CA6801
:101FA00022434C6922F08002224302608A68C262A6
:101FB0000A688262984201D1096901630121416185
:101FC000F0BD0000002C014000040040000800406B
:101FD00010B501F01F030121046A99408C4304628B
:101FE000016A9A401143016210BD10B5846842EA4B
:101FF000032224F47F440A432243826010BD826896
:1020000022F070020A4342F007018160704700002D
:1020100030B5026A22F001020262026A43688469F2
:1020200024F073050C682C4322F002058A682A43C9
:102030000A4DA8420BD122F00805CA6823F4407368
:102040002A434D6922F004021D438B692B434360F0
:10205000846149684163026230BD0000002C014088
:1020600030B5026A22F010020262026A4368846993
:102070000D6824F4E64444EA05248D6822F0200229
:1020800042EA05120B4DA8420ED1CD6822F0800223
:1020900042EA05124D6923F4406343EA85038D69E2
:1020A00022F0400243EA850343608461496881630A
:1020B000026230BD002C014030B5026A22F4807209
:1020C0000262036A4268C46923F4007324F0730552
:1020D0000C682C438D6843EA05230C4DA8420ED1B1
:1020E000CD6823F4006343EA05234D6922F440528E
:1020F00042EA05128D6923F4806342EA05124260C8
:10210000C4614968C163036230BD0000002C014016
:1021100030B5026A22F480520262046A4268C369DE
:102120000D6823F4E64343EA05238D6824F4005444
:1021300044EA0534064DA84204D14D6922F4804298
:1021400042EA85124260C36149680164046230BD9D
:10215000002C014010B5036A046A24F001040462F3
:10216000846924F0F00444EA021423F00A020A43CA
:102170008461026210BD10B5036A23F0100303628C
:102180008369046A23F4704343EA023224F0A00313
:1021900043EA01118261016210BD70B5446A206892
:1021A000406994F83D10C0F3C0100025212904D1E6
:1021B00018B1E584204600F067F82068406994F87B
:1021C0003E10C0F38010222904D118B1E5852046C5
:1021D00000F042F8206C40F0100020642046FFF729
:1021E000BCFB70BD10B50146406A096809688906E4
:1021F0001BD40021C1850168CA6822F48072CA60BC
:1022000001684A6922F001024A6101684A6922F0C4
:1022100040024A61202180F83E10016B012904D15F
:102220000168CA6822F01002CA60016B012902D05D
:10223000FFF72BFC10BD818DFFF78EFB10BD10B595
:10224000406A016B012902D0FFF720FC10BD818D8F
:102250004908FFF781FB10BD0168CA6822F490723B
:10226000CA6001684A6922F001024A61016B0129D2
:1022700004D10168CA6822F01002CA60202180F8E7
:102280003E100021016370470168CA6822F0C00255
:10229000CA60202180F83D107047000070B50446E8
:1022A00000680169E26821F440511143016121692C
:1022B000A0680843616908432168CA6841F20C6359
:1022C0009A430243CA6020684169A26921F44071BF
:1022D000114341611E492068884202D1FEF75EFF2A
:1022E00001E0FEF74BFF00EBC00101EB001260685C
:1022F00064218000B2FBF0F3B3FBF1F36FF018063A
:102300007343B2FBF0F5B2FBF0F605EB8305322325
:1023100003EB0515B5FBF1F5B6FBF1F605F0F0059D
:1023200005EB0615B2FBF0F6B2FBF0F0B0FBF1F0F6
:102330006FF01802504306EB800003EB0010B0FB77
:10234000F1F0216800F00F002844886070BD0000A3
:102350000038014038B58162828500251346044665
:102360000564222084F83E00A26B13489062A26BA1
:102370001248D062A26B12481063A06B0A464563F4
:102380002168A06B091DFEF709FC206801684168FF
:10239000009184F83C50C16841F48071C1602068AC
:1023A000416941F0010141612068416941F040010A
:1023B0004161002038BD0000E52100083F220008EF
:1023C0009B2100082DE9F041984617460E46044629
:1023D000069D1DE0681C1BD02DB1FEF71FFDA0EB74
:1023E0000800A84214D92068C16821F4D071C160E6
:1023F0002068416921F001014161202084F83D00FD
:1024000084F83E00002084F83C000320BDE8F08101
:102410002068006836EA000004D00020B842D9D015
:102420000020F3E70120F9E7FEE70907090E00287D
:1024300004DB00F1E02080F80014704700F00F008A
:1024400000F1E02080F8141D70470000FEF7F4FC56
:10245000FFF74EFDFFF7E8FBFFF73AFCFFF76CFCD8
:10246000FFF7AEFBFFF7B4FCFFF76CFB0021084859
:10247000FFF724FA032207490748FFF7F1FAFFF7AD
:10248000B5FB00F018F803488168491C8160FCE73F
:102490006403002000000020AC030020014600205F
:1024A000842900D0C81C704710B500B9012000F085
:1024B00015FB002010BD10B500F036FB002010BD4C
:1024C0007FB50D4604464169B0F9080081B1A169A4
:1024D00071B1FFF7E3FFD4E905128DE80700D4E9F5
:1024E00000102B46226900F022FC039004B070BD5E
:1024F000FFF7D4FF03A9CDE90001208A2B4682B261
:10250000D4E9001000F0E6FB012801D00020EDE73F
:102510000398EBE72DE9F041184C0F460546666934
:102520002068001D00F016FA38B9206890F82C10C9
:1025300001208840A1698143A161681C07D137B19E
:102540002168BDE8F0410E48091D00F047BA206837
:102550003544B5424560216805D2A068BDE8F04128
:10256000091D00F023BA6068091D00F01FFA206BF6
:10257000854200D22563BDE8F081000038000020CC
:10258000100500202DE9F041054600F033FA2E4CED
:102590002069401C206120682C4F10B1E06940B3D5
:1025A0002DE025602069012829D1002606EB860050
:1025B00007EB800000F0ECF9761C072EF6D32348D9
:1025C0008C3000F0E5F92148A03000F0E1F91F4817
:1025D000B43000F0DDF91D48C83000F0D9F91B48CF
:1025E000DC3000F0D5F919488C3060601430A06000
:1025F00005E02068E96AC06A884200D82560E06A80
:10260000401CE062E96A0120A26988401043A06191
:1026100001EB810007EB8000291D00F0DFF900F0DD
:1026200009FAE06900280CD02068E96AC06A88428B
:1026300007D207494FF080500860BFF34F8FBFF3B8
:102640006F8FBDE8F08100003800002034040020C6
:1026500004ED00E010B5044690F8510058B101288F
:102660000CD002280FD0502080F31188BFF34F8F79
:10267000BFF36F8FFEE7206B00F0F0F92046BDE856
:10268000104000F0EBB910BD10484FF44061420714
:1026900006D0C01D0D4920F00700411AC1F5406168
:1026A0000B4A00230144C2E900030839103A21F023
:1026B000070111604B600B600B1AC0E900139360B7
:1026C0004FF000405360D0607047000024050020A8
:1026D00084000020144E154CA6F1C8074FF0805816
:1026E000DFF84C9012E000BF00F084F9F068C56894
:1026F000281D00F02FF92069401E2061E068401E6F
:10270000E06000F097F92846FFF7A4FFE068002892
:10271000EAD138680128F9D9C9F80080BFF34F8F92
:10272000BFF36F8FF2E70000FC04002038000020A8
:1027300004ED00E02DE9F0479A46DDE90984814681
:102740006FF00303206B03EB82021044089D20F01E
:102750000706700707D0502080F31188BFF34F8F12
:10276000BFF36F8FFEE723180A5C83F834200A5CFE
:1027700012B1401C1028F6D3002784F84370072DAF
:1027800000D30625E562C4E91157201D00F00BF9BE
:1027900004F1180000F007F92461C5F10700646234
:1027A000A061E76484F8507052464946304600F014
:1027B000BFF82060B8F1000F01D0C8F80040BDE8B4
:1027C000F087000030B5114900E011460A688242E6
:1027D000FBD34B685C18844203D1406818444860BE
:1027E000084643681C18944209D1084C103C2468E0
:1027F000A24209D052681A4442600A681268026014
:10280000814200D0086030BD0460F9E784000020F8
:1028100006484168096829B14168C968C9684968BA
:10282000016370474FF0FF31FAE7000038000020E5
:1028300008484068401C4FF0500080F3118804D0D5
:10284000BFF34F8FBFF36F8FFEE7BFF34F8FBFF321
:102850006F8FFEE78C0000202DE9F0410546002730
:1028600000F098F9314E306808B9FFF70DFFF068B5
:1028700005424BD1C5B3083568070ED005F00700F7
:10288000C0F108000544680707D0502080F3118884
:10289000BFF34F8FBFF36F8FFEE72DB37068854294
:1028A00034D82248103001460C6801E020460C461E
:1028B0006168A94202D221680029F7D131688C42AF
:1028C00024D007682168016060680837411B10291F
:1028D0000FD96019420708D0502080F31188BFF348
:1028E0004F8FBFF36F8FFEE710E041606560FFF729
:1028F00069FF61687068401A7060B268904200D2E7
:10290000B060F06801430020C4E9000100F0ACFAB7
:10291000780707D0502080F31188BFF34F8FBFF3A3
:102920006F8FFEE73846BDE8F0810000740000209C
:1029300010B5031F4FF080741C601B1F21F00101B4
:102940001960191F024B0B60143940380A6010BD22
:1029500031280008D0E9013201699A60D0E90123E9
:102960005A604A68824201D182684A60002202614C
:102970000868401E0860086870470000034B036049
:1029800003F1540008608020106070479800002018
:1029900000F108014FF0FF32C0E90112C16001618E
:1029A00000210160704700210161704730B50B685C
:1029B0005A1C02D000F1080202E0026904E022463B
:1029C000546825689D42FAD953684B6099608A60C3
:1029D000516008610168491C016030BD42684A606D
:1029E00093688B6093685960916008610168491C25
:1029F00001607047502080F31188BFF34F8FBFF301
:102A00006F8F0A494868401C486001280CD108486B
:102A1000006810F0FF0F07D0502080F31188BFF33B
:102A20004F8FBFF36F8FFEE7704700008C000020D0
:102A300004ED00E00849486828B1401E486001D113
:102A400080F311887047502080F31188BFF34F8FB7
:102A5000BFF36F8FFEE700008C00002070B50028E8
:102A600027D0144DA0F108046168E868014207D13D
:102A7000502080F31188BFF34F8FBFF36F8FFEE7B5
:102A800022683AB1502080F31188BFF34F8FBFF313
:102A90006F8FFEE78143616000F07CF860686968D1
:102AA000084468602046FFF78DFEBDE8704000F0E6
:102AB000DBB970BD740000204FF0E02000210161FF
:102AC000816105494FF47A720968B1FBF2F1491E40
:102AD00041610721016170473400002010B50200F8
:102AE00014D00F48806B38B1502080F31188BFF3A9
:102AF0004F8FBFF36F8FFEE700F04CF800211046B8
:102B0000FFF708FD00F0B0F9002807D105494FF0A4
:102B100080500860BFF34F8FBFF36F8F10BD000070
:102B20003800002004ED00E010B586B000240394C6
:102B300005AA04A903A80494FFF720FFDDE9030117
:102B40000094CDE9011000230EA11048059A00F071
:102B5000EEF80F490028486311D0502080F3118807
:102B6000BFF34F8FBFF36F8F4FF0FF30086301202B
:102B7000C8614C6106B0BDE8104000F041B806B035
:102B800010BD000049444C4500000000D526000857
:102B9000380000200248816B491C816370470000A7
:102BA000380000201448816B11B101214162704747
:102BB000002141628169B1FA81F1C1F11F0101EB8C
:102BC00081020E4951F822306BB101EB820101F113
:102BD00008034A6852684A609A4201D152684A60C2
:102BE000D16801607047502080F31188BFF34F8F88
:102BF000BFF36F8FFEE70000380000203404002090
:102C00001CB5264908780190FF20087008788DF8D7
:102C100000009DF800009DF8002000F0F0009042B8
:102C200007D0502080F31188BFF34F8FBFF36F8F11
:102C3000FEE79DF800001A4B00F0500018700720C6
:102C4000986005E09DF8002052008DF80020401E9D
:102C50009DF800201206F5D49860032807D0502074
:102C600080F31188BFF34F8FBFF36F8FFEE74FF4F0
:102C700040709860019808700A48016841F470013A
:102C80000160016841F070410160FFF715FF00200D
:102C90005860FDF78BFA00201CBD000000E400E046
:102CA0008C00002020ED00E010B5502080F311884A
:102CB000BFF34F8FBFF36F8F00F072F818B1044964
:102CC0004FF080500860002080F3118810BD000094
:102CD00004ED00E02DE9FF5F8346DDE90E879946AC
:102CE00016468A469000FFF7B7FD05001CD0542019
:102CF000FFF7B2FD040014D00020256384F85100D2
:102D0000CDE90240CDE900874B4632465146584650
:102D1000FFF710FD2046FFF735FC012004B0BDE8A9
:102D2000F09F2846FFF79AFE4FF0FF30F6E7F0B528
:102D300085B0DDE90B640A9DA6B1DCB1542700978C
:102D40002663022684F85160002604AFCDE90246CE
:102D5000CDE90057FFF7EEFC2046FFF713FC04987F
:102D600005B0F0BD502080F31188BFF34F8FBFF343
:102D70006F8FFEE7502080F31188BFF34F8FBFF3B2
:102D80006F8FFEE70548C16919B1806B18B100204B
:102D90007047012070470220704700003800002073
:102DA0002DE9F0412E4C0027A06B40B1206A401C59
:102DB0002062606A00B101273846BDE8F08166698B
:102DC000761C666113D16068006838B1502080F3CA
:102DD0001188BFF34F8FBFF36F8FFEE76068A16864
:102DE0006160A060A06A401CA062FFF711FD206B2B
:102DF000DFF87080864209D36068006880B160683F
:102E0000C068C568686886420DD220632068C06AC1
:102E100000EB800158F821000128CAD90127C8E732
:102E20004FF0FF30F1E7281DFFF794FDA86A18B1B5
:102E300005F11800FFF78EFDE86A0121A2698140C3
:102E40001143A16100EB800108EB8100291DFFF710
:102E5000C5FDE86A2168C96A8842CDD30127CBE75E
:102E600038000020340400202DE9F0472C4D0024C8
:102E70002746A86B38B1FFF7BDFDA86B401EA863BD
:102E8000A86B40B146E0502080F31188BFF34F8F0C
:102E9000BFF36F8FFEE72969224E0120D1B3A6F15F
:102EA000B40980463068E8B1F068C46804F11800DD
:102EB000FFF750FD201DFFF74DFDE06AAA6908FAF3
:102EC00000F11143A96100EB800109EB8100211D94
:102ED000FFF784FDE06A2968C96A8842E2D3C5F831
:102EE0002480DFE70CB1FFF793FC2C6A44B146461F
:102EF000FFF756FF00B16E62641EF9D10020286210
:102F0000686A38B10849012738070860BFF34F8F56
:102F1000BFF36F8FFFF78EFD3846BDE8F0870000E6
:102F200038000020E804002004ED00E0882F0008AD
:102F3000391E0008000000000000000080000000B2
:102F400000000000000000007C2F0008711E000837
:102F5000FDFF0000000000008000000000000000F5
:102F60000000000000000000000000000102030457
:102F70000607080900000000010203046D7954618E
:102F8000736B30320000000064656661756C7454C8
:102F900061736B00B42F000800000020980000004F
:102FA000280100084C30000898000020F0160000AE
:102FB00044010008000000000000000000000000C4
:102FC0000000000000000000000000000000000001
:102FD00000000000000000000000000001000000F0
:102FE00010000000000000000024F40000000000B9
:102FF00000000000000000000000000000000000D1
:1030000000000000000000000000000000000000C0
:1030100000000000000000000000000000000000B0
:1030200000000000000000000000000000000000A0
:103030000000000000000000000000000000000090
:0C30400000000000AAAAAAAA00000000DC
:04000005080000ED02
:00000001FF
